S018000050726F746F636F6C45786368616E67652E7372656397
S11300000C9434000C9451000C9451000C94510045
S11300100C9451000C9451000C946F010C945100F9
S11300200C9451000C9451000C9451000C94510008
S11300300C9451000C9451000C9451000C945100F8
S11300400C9451000C9451000C9451000C945100E8
S11300500C9451000C9451000C9451000C945100D8
S11300600C9451000C94510011241FBECFEFD8E022
S1130070DEBFCDBF12E0A0E0B1E0ECEDF8E002C0DD
S113008005900D92AC30B107D9F722E0ACE0B2E0B4
S113009001C01D92A031B207E1F70E9496010C94B1
S11300A06C040C9400000F931F93CF93DF93EC0127
S11300B08B01CB010E944502998388831B821A829B
S11300C01D830C83DF91CF911F910F9108951F938E
S11300D0CF93DF93EC01162F6A817B818C819D8104
S11300E06817790761F46F5F7F4F7D836C83888124
S11300F099810E946603009779F099838883288107
S113010039818A819B81AC014F5F5F4F5B834A8356
S1130110F901E80FF91F1083DF91CF911F91089522
S1130120CF93DF93EC01888199810E94DD021982CB
S113013018821D821C821B821A82DF91CF9108953E
S113014078940FB6F894A8958091600088618093A4
S11301506000109260000FBE84B784B784B784B780
S113016084B7807F84BF88E199E20FB6F894A8959C
S1130170809360000FBE9093600090E490936000C1
S11301808093C1008EE08093C20083E08093C4001A
S11301901092C5002FEF89EF90E0215080409040ED
S11301A0E1F700C000000895E0ECF0E080818823CE
S11301B0ECF78091C6000895DF92EF92FF920F93BF
S11301C01F93CF93DF938C017B01C0E0D0E00F2E0F
S11301D0FAE0DF2EF02D0E94D4008A3301F120973B
S11301E0D1F38A30E1F41C161D06CCF4F801EC0FAF
S11301F0FD1F319780818D3049F4C00FD11F8AE0F3
S113020088836AE0C7010E94670015C0F801EC0FFB
S1130210FD1FD0826D2DC7010E94670008C0F80140
S1130220EC0FFD1F8083682FC7010E946700219691
S1130230C032D10581F6DF91CF911F910F91FF90CC
S1130240EF90DF900895E0ECF0E0908195FFFDCF12
S11302508093C60008950F931F93CF93DF93FC01FF
S1130260808181110AC011C08991882371F00E9494
S113027023010C171D07C1F708C08F010E94230139
S1130280E80121960F5D1F4FEFCFDF91CF911F91B2
S11302900F9108952C9A8FE99FE00197F1F700C020
S11302A000002C988FE99FE00197F1F700C000004F
S11302B008952D9A8FE19EE40197F1F700C00000A4
S11302C02D988FE19EE40197F1F700C00000089596
S11302D0FC0180961192E817F907E1F708951F923F
S11302E00F920FB60F9211242F933F934F935F9366
S11302F06F937F938F939F93AF93BF93EF93FF93EA
S1130300A8950E94A0000E944A01FF91EF91BF911D
S1130310AF919F918F917F916F915F914F913F9199
S11303202F910F900FBE0F901F901895CF93DF93CE
S1130330CDB7DEB7C654D1090FB6F894DEBF0FBEF1
S1130340CDBF8FEF84B9FE01319680E2DF011D92AB
S11303508A95E9F70E94A0007E01B1E2EB0EF11C40
S11303600F2EF6E08F2EF1E09F2EF02D0F2EF8E0E9
S1130370AF2EF1E0BF2EF02D0F2EFAE0CF2EF1E0DC
S1130380DF2EF02D0F2EFDE07F2EF02D0AE068EE1B
S113039073E0CE018F5B9F4F0E945300BE016F5BE1
S11303A07F4FCE0101960E94DC004AE360E2CE0159
S11303B001960E942E02182F682FCE0101960E94EA
S11303C01A02E1E0F0E0EC0FFD1FE10FF11D908156
S11303D0891309C0CE0101960E942B018DE090E0A3
S11303E00E942B011BC020E2F70111922A95E9F724
S11303F02AE329A38AA39BA31CA38DA2AEA2CFA206
S113040028A779A60AA7C7010E942B018DE090E0D6
S11304100E942B018AE090E00E942B01CE010196FC
S11304200E946801CE018F5B9F4F0E9490000E9442
S11304305901ADCF662381F0DC019C01260F311DEB
S11304408FEFED918E27E82FF0E0E45FFE4F80817F
S1130450A217B307B1F708958FEF0895662399F0B3
S1130460E82FF92F90E021912A3341F4992331F0B8
S113047080818D3019F48FEF890F08959F5F691380
S1130480F2CF862F089580E008950F931F93CF93A2
S1130490DF938230910510F482E090E0E0910E0247
S11304A0F0910F0220E030E0A0E0B0E0309719F1C5
S11304B0408151810281138148175907C8F084177C
S11304C0950769F4109731F012960C9312971396CE
S11304D01C9327C000930E0210930F0222C0211513
S11304E0310519F04217530718F49A01BD01EF01C1
S11304F0DF01F801DBCF21153105F9F0281B390B99
S11305002430310580F48A819B816115710521F0C5
S1130510FB019383828304C090930F0280930E02A5
S1130520FE01329644C0FE01E20FF31F81939193C2
S113053022503109398328833AC020910C0230912A
S11305400D02232B41F420910201309103013093D9
S11305500D0220930C02209100013091010121151C
S1130560310541F42DB73EB7409104015091050186
S1130570241B350BE0910C02F0910D02E217F307F6
S1130580A0F42E1B3F0B2817390778F0AC014E5FFF
S11305905F4F2417350748F04E0F5F1F50930D022D
S11305A040930C028193919302C0E0E0F0E0CF010C
S11305B0DF91CF911F910F910895CF93DF9300970F
S11305C009F481C0FC01329713821282A0910E02B9
S11305D0B0910F02109781F420813181820F931F13
S11305E020910C0230910D022817390751F5F09330
S11305F00D02E0930C0267C0ED0120E030E0CE175D
S1130600DF0740F44A815B819E0141155105F1F0F9
S1130610EA01F5CFD383C28340815181840F951FB2
S1130620C817D90759F488819981840F951F0296B8
S1130630918380838A819B819383828321153105F1
S113064029F4F0930F02E0930E023DC0E901FB830D
S1130650EA8349915991C40FD51FEC17FD0761F442
S113066080819181840F951F0296E9019983888383
S1130670828193819B838A83E0E0F0E012968D91DE
S11306809C911397009719F0FD01DC01F7CF8D9130
S11306909C9111979D012E5F3F4F820F931F2091D4
S11306A00C0230910D022817390769F4309729F4A8
S11306B010920F0210920E0202C013821282B093A3
S11306C00D02A0930C02DF91CF910895A0E0B0E059
S11306D0ECE6F3E00C943904EC01009721F4CB012F
S11306E00E944502B4C0FC01E60FF71F9C01225092
S11306F03109E217F30708F4A8C0D9010D911C9140
S1130700119706171707B0F00530110508F49BC0C0
S1130710C80104978617970708F495C00250110979
S1130720061B170B019311936D937C93CF010E94C9
S1130730DD0289C05B01A01AB10A4C01800E911E32
S1130740A0910E02B0910F02612C712CE12CF12CBE
S1130750109709F446C08D919C911197A815B9057D
S1130760B1F56C0142E0C40ED11CCA14DB0478F16B
S11307704C018A189B08640142E0C40ED11C1296F5
S1130780BC9012971396AC91B5E0CB16D10440F00F
S1130790B282A38391828082D9016D937C9309C034
S11307A00E5F1F4F800F911FF90191838083EB2D02
S11307B0FA2FE114F10431F0D7011396FC93EE9370
S11307C0129741C0F0930F02E0930E023CC06816EA
S11307D0790608F43C017D0112960D90BC91A02D80
S11307E0B7CF80910C0290910D0288169906E1F41E
S11307F066167706C8F48091000190910101009774
S113080041F48DB79EB74091040150910501841BBA
S1130810950BE817F907C8F4F0930D02E0930C0266
S1130820F901718360830FC0CB010E9445027C01F2
S1130830009759F0A801BE010E942C04CE010E9429
S1130840DD02C70104C0CE0102C080E090E0CDB754
S1130850DEB7EEE00C945504FB01DC0102C001900C
S11308600D9241505040D8F708952F923F924F92E5
S11308705F926F927F928F929F92AF92BF92CF922C
S1130880DF92EF92FF920F931F93CF93DF93CDB735
S1130890DEB7CA1BDB0B0FB6F894DEBF0FBECDBFAD
S11308A009942A88398848885F846E847D848C847E
S11308B09B84AA84B984C884DF80EE80FD800C8187
S11308C01B81AA81B981CE0FD11D0FB6F894DEBF6A
S10F08D00FBECDBFED010895F894FFCFDA
S11308DC00001002200032003300340081316253D6
S11308ECC4F5A697B988DBEA7D4C1F2E4372211000
S11308FC87B6E5D4FACB98A93E0F5C6D86B7E4D5E0
S113090C427320113F0E5D6CFBCA99A8C5F4A796DF
S113091C013063527C4D1E2FB889DAEB3D0C5F6EAF
S113092CF9C89BAA84B5E6D7407122137E4F1C2DBF
S113093CBA8BD8E9C7F6A59403326150BB8AD9E8BF
S113094C7F4E1D2C02336051C6F7A495F8C99AAB9F
S113095C3C035E6F4170231285B4E7D67A4B182999
S113096CBE8FDCEDC3F2A1900736655439085B6A7F
S113097CFDCC9FAE80B1E2D344752617FCCD9EAF5F
S113098C38095A6B4574271681B0E3D2BF8EDDEC5F
S113099C7B4A192806376455C2F3A091477625146F
S11309AC83B2E1D0FECF9CAD3A0B5869043566573F
S11309BCC0F1A293BD8CDFEE79481B2AC1F0A3923F
S11309CC0534675678491A2BBC8DDEEF82B3E0D11F
S10F09DC467724153B0A5968FFCE9DACF9
S9030000FC
