S018000050726F746F636F6C45786368616E67652E7372656397
S11300000C9434000C9449000C9449000C9449005D
S11300100C9449000C9449000C94F1000C94490090
S11300200C9449000C9449000C9449000C94490028
S11300300C9449000C9449000C9449000C94490018
S11300400C9449000C9449000C9449000C94490008
S11300500C9449000C9449000C9449000C944900F8
S11300600C9449000C94490011241FBECFEFD8E032
S1130070DEBFCDBF12E0A0E0B1E0E6EFF2E002C0E7
S113008005900D92A230B107D9F70E9418010C9483
S113009079010C94000078940FB6F894A895809197
S11300A06000886180936000109260000FBE84B786
S11300B084B784B784B784B7807F84BF88E199E22A
S11300C00FB6F894A895809360000FBE90936000DB
S11300D090E4909360008093C1008EE08093C2000E
S11300E083E08093C4001092C5002FEF89EF90E065
S11300F0215080409040E1F700C000000895E0ECFA
S1130100F0E080818823ECF78091C6000895EF9297
S1130110FF920F931F93CF93DF937C018C01C0E078
S1130120D0E00E947F008D3021F4CE0DDF1D888346
S113013005C0F80181938F012196F3CFDF91CF9110
S11301401F910F91FF90EF900895E0ECF0E0908103
S113015095FFFDCF8093C60008950F931F93CF930F
S1130160DF93FC01808181110AC011C08991882329
S113017071F00E94A5000C171D07C1F708C08F017C
S11301800E94A500E8012196005E1F4FEFCFDF918A
S1130190CF911F910F9108952C9A8FE99FE00197B9
S11301A0F1F700C000002C988FE99FE00197F1F768
S11301B000C0000008952D9A8FE19EE40197F1F7A5
S11301C000C000002D988FE19EE40197F1F700C074
S11301D000000895FC0180961192E817F907E1F7F1
S11301E008951F920F920FB60F9211242F933F93ED
S11301F04F935F936F937F938F939F93AF93BF932B
S1130200EF93FF93A8950E944B000E94CC00FF91AE
S1130210EF91BF91AF919F918F917F916F915F917A
S11302204F913F912F910F900FBE0F901F901895F3
S1130230CF93DF93CDB7DEB7A0970FB6F894DEBFA8
S11302400FBECDBF8FEF84B9FE01319680E2DF018E
S11302501D928A95E9F70E944B00CE0101960E94F7
S11302608700CE0101960E9466018C010E94DB008A
S11302701127B801CE0101960E945201E1E0F0E09D
S1130280EC0FFD1FE00FF11F8083CE0101960E9449
S1130290AD0080E091E00E94AD00CE0101960E9485
S11302A0EA00DBCF662381F0DC019C01260F311DBF
S11302B08FEFED918E27E82FF0E0EE5FFE4F808107
S11302C0A217B307B1F708958FEF0895FC012081B9
S11302D02D3031F0319691E081918D3029F401C0B7
S11302E090E08FEF890F08959F5F9032A9F780E225
S10902F00895F894FFCF0D
S11302F60D0081316253C4F5A697B988DBEA7D4CBB
S11303061F2E4372211087B6E5D4FACB98A93E0F67
S11303165C6D86B7E4D5427320113F0E5D6CFBCA53
S113032699A8C5F4A796013063527C4D1E2FB8894F
S1130336DAEB3D0C5F6EF9C89BAA84B5E6D740712B
S113034622137E4F1C2DBA8BD8E9C7F6A594033227
S11303566150BB8AD9E87F4E1D2C02336051C6F723
S1130366A495F8C99AAB3C035E6F4170231285B419
S1130376E7D67A4B1829BE8FDCEDC3F2A190073677
S1130386655439085B6AFDCC9FAE80B1E2D34475EF
S11303962617FCCD9EAF38095A6B4574271681B0D3
S11303A6E3D2BF8EDDEC7B4A192806376455C2F3C7
S11303B6A0914776251483B2E1D0FECF9CAD3A0BCB
S11303C6586904356657C0F1A293BD8CDFEE7948AF
S11303D61B2AC1F0A3920534675678491A2BBC8DA3
S11303E6DEEF82B3E0D1467724153B0A5968FFCE87
S10503F69DACB8
S9030000FC
