S018000050726F746F636F6C45786368616E67652E7372656397
S11300000C9434000C9449000C9449000C9449005D
S11300100C9449000C9449000C94F1000C94490090
S11300200C9449000C9449000C9449000C94490028
S11300300C9449000C9449000C9449000C94490018
S11300400C9449000C9449000C9449000C94490008
S11300500C9449000C9449000C9449000C944900F8
S11300600C9449000C94490011241FBECFEFD8E032
S1130070DEBFCDBF12E0A0E0B1E0E2E0F3E002C0F9
S113008005900D92A430B107D9F70E9418010C9481
S11300907F010C94000078940FB6F894A895809191
S11300A06000886180936000109260000FBE84B786
S11300B084B784B784B784B7807F84BF88E199E22A
S11300C00FB6F894A895809360000FBE90936000DB
S11300D090E4909360008093C1008EE08093C2000E
S11300E083E08093C4001092C5002FEF89EF90E065
S11300F0215080409040E1F700C000000895E0ECFA
S1130100F0E080818823ECF78091C6000895EF9297
S1130110FF920F931F93CF93DF937C018C01C0E078
S1130120D0E00E947F008A3021F4CE0DDF1D888349
S113013005C0F80181938F012196F3CFDF91CF9110
S11301401F910F91FF90EF900895E0ECF0E0908103
S113015095FFFDCF8093C60008950F931F93CF930F
S1130160DF93FC01808181110AC011C08991882329
S113017071F00E94A5000C171D07C1F708C08F017C
S11301800E94A500E8012196005E1F4FEFCFDF918A
S1130190CF911F910F9108952C9A8FE99FE00197B9
S11301A0F1F700C000002C988FE99FE00197F1F768
S11301B000C0000008952D9A8FE19EE40197F1F7A5
S11301C000C000002D988FE19EE40197F1F700C074
S11301D000000895FC0180961192E817F907E1F7F1
S11301E008951F920F920FB60F9211242F933F93ED
S11301F04F935F936F937F938F939F93AF93BF932B
S1130200EF93FF93A8950E944B000E94CC00FF91AE
S1130210EF91BF91AF919F918F917F916F915F917A
S11302204F913F912F910F900FBE0F901F901895F3
S1130230CF93DF93CDB7DEB7A0970FB6F894DEBFA8
S11302400FBECDBF8FEF84B9FE01319680E2DF018E
S11302501D928A95E9F70E944B00CE0101960E94F7
S113026087004AE360E2CE0101960E946701182FDD
S11302700E94DB00612FCE0101960E945301E1E050
S1130280F0E0EC0FFD1FE10FF11D8083CE0101961C
S11302900E94AD0080E091E00E94AD00CE01019685
S11302A00E94EA00DACF662381F0DC019C01260F6C
S11302B0311D8FEFED918E27E82FF0E0ED5FFE4FBB
S11302C08081A217B307B1F708958FEF0895FC0159
S11302D0662399F08081481309C004C02191241336
S11302E007C001C090E08FEF890F0895319690E028
S11302F09F5F6913F3CF862F089580E00895F894E3
S1050300FFCF29
S11303020D0A0081316253C4F5A697B988DBEA7DF0
S11303124C1F2E4372211087B6E5D4FACB98A93E1E
S11303220F5C6D86B7E4D5427320113F0E5D6CFB02
S1130332CA99A8C5F4A796013063527C4D1E2FB802
S113034289DAEB3D0C5F6EF9C89BAA84B5E6D74007
S11303527122137E4F1C2DBA8BD8E9C7F6A59403DC
S1130362326150BB8AD9E87F4E1D2C02336051C6DC
S1130372F7A495F8C99AAB3C035E6F4170231285CA
S1130382B4E7D67A4B1829BE8FDCEDC3F2A19007ED
S113039236655439085B6AFDCC9FAE80B1E2D34422
S11303A2752617FCCD9EAF38095A6B457427168102
S11303B2B0E3D2BF8EDDEC7B4A192806376455C2FE
S11303C2F3A0914776251483B2E1D0FECF9CAD3AD7
S11303D20B586904356657C0F1A293BD8CDFEE79E0
S11303E2481B2AC1F0A3920534675678491A2BBCDC
S11303F28DDEEF82B3E0D1467724153B0A5968FFBC
S1070402CE9DAC00DB
S9030000FC
