S018000050726F746F636F6C45786368616E67652E7372656397
S11300000C9434000C9451000C9451000C94510045
S11300100C9451000C9451000C94F3000C94510076
S11300200C9451000C9451000C9451000C94510008
S11300300C9451000C9451000C9451000C945100F8
S11300400C9451000C9451000C9451000C945100E8
S11300500C9451000C9451000C9451000C945100D8
S11300600C9451000C94510011241FBECFEFD8E022
S1130070DEBFCDBF12E0A0E0B1E0ECEDF8E002C0DD
S113008005900D92A630B107D9F722E0A6E0B2E0C0
S113009001C01D92AA30B207E1F70E9418010C9426
S11300A06C040C94000078940FB6F894A895809191
S11300B06000886180936000109260000FBE84B776
S11300C0807F84BF88E199E20FB6F894A895809365
S11300D060000FBE9093600090E490936000809362
S11300E0C1008EE08093C20083E08093C40010922C
S11300F0C5002FEF89EF90E0215080409040E1F758
S113010000C000000895E0ECF0E080818823ECF763
S11301108091C60008950F931F93CF93DF938C01B2
S1130120C0E0D0E00E9483008A33D1F02097D1F35D
S11301308A30B1F41C161D069CF4D801ED91FC9193
S1130140EC0FFD1F319780818D3029F46AE0C801DE
S11301500E94FA010DC06AE0C8010E94FA0104C0BD
S1130160682FC8010E94FA012196C032D105D1F648
S1130170DF91CF911F910F910895E0ECF0E0908111
S113018095FFFDCF8093C60008950F931F93CF93DF
S1130190DF938C01DC0114968D919C9115971816B0
S11301A01906D4F4ED91FC91808181110AC014C028
S11301B0D801ED91FC91EC0FFD1F8081811103C0EA
S11301C00BC0C0E0D0E00E94BD002196F8018481FC
S11301D09581C817D90764F30E943C02DF91CF913F
S11301E01F910F9108951F920F920FB60F92112431
S11301F02F933F934F935F936F937F938F939F932B
S1130200AF93BF93EF93FF93A8950E943302FF919E
S1130210EF91BF91AF919F918F917F916F915F917A
S11302204F913F912F910F900FBE0F901F901895F3
S1130230CF93DF9300D000D000D0CDB7DEB78FEFDF
S113024084B90E94530060E270E0CE0101960E94DE
S1130250E601CE0101960E948B00CE0101960E9418
S1130260C701082F682FCE0101960E94B101182FF3
S1130270E981FA81E00FF11D8081181346C0CE0197
S113028001960E94230260E270E0CE0101960E9472
S1130290E6016AE3CE0101960E94FA0160E0CE0114
S11302A001960E94FA0161E0CE0101960E94FA01D2
S11302B062E0CE0101960E94FA0163E0CE0101964C
S11302C00E94FA0164E0CE0101960E94FA0165E001
S11302D0CE0101960E94FA01612FCE0101960E947F
S11302E0FA016AE3CE0101960E94FA016DE0CE01A3
S11302F001960E94FA016AE0CE0101960E94FA0179
S1130300CE0101960E94C50027C0CE0101960E942D
S1130310230260E270E0CE0101960E94E6016AE3E6
S1130320CE0101960E94FA01612FCE0101960E942E
S1130330FA016AE3CE0101960E94FA016DE0CE0152
S113034001960E94FA016AE0CE0101960E94FA0128
S1130350CE0101960E94C500CE0101960E9423029F
S113036072CF662391F0FC01A081B1819D01260F1B
S1130370311D8FEFED918E27E82FF0E0EA5FFE4FFD
S11303808081A217B307B1F708958FEF0895DC01B8
S113039014964D915C91159714161506ACF4ED91D5
S11303A0FC9180E090E021912A3341F4181619065B
S11303B02CF420812D3011F4815008950196841776
S11303C0950789F780E0089580E008950F931F93BF
S11303D0CF93DF93EC018B01CB010E9445029983FB
S11303E088831B821A821D830C83DF91CF911F9116
S11303F00F9108951F93CF93DF93EC01162F6A8119
S11304007B818C819D816817790761F46F5F7F4FD1
S11304107D836C83888199810E946603009779F0BB
S113042099838883288139818A819B81AC014F5FBC
S11304305F4F5B834A83F901E80FF91F1083DF9153
S1130440CF911F910895CF93DF93EC018881998117
S11304500E94DD02198218821D821C821B821A826C
S1130460DF91CF9108952C9A8FE99FE00197F1F7DE
S113047000C000002C9808952D9A8FE99FE0019701
S1130480F1F700C000002D9808950F931F93CF93A8
S1130490DF938230910510F482E090E0E09108024D
S11304A0F091090220E030E0A0E0B0E0309719F1CB
S11304B0408151810281138148175907C8F084177C
S11304C0950769F4109731F012960C9312971396CE
S11304D01C9327C0009308021093090222C021151F
S11304E0310519F04217530718F49A01BD01EF01C1
S11304F0DF01F801DBCF21153105F9F0281B390B99
S11305002430310580F48A819B816115710521F0C5
S1130510FB019383828304C09093090280930802B1
S1130520FE01329644C0FE01E20FF31F81939193C2
S113053022503109398328833AC020910602309130
S11305400702232B41F420910201309103013093DF
S11305500702209306022091000130910101211528
S1130560310541F42DB73EB7409104015091050186
S1130570241B350BE0910602F0910702E217F30702
S1130580A0F42E1B3F0B2817390778F0AC014E5FFF
S11305905F4F2417350748F04E0F5F1F5093070233
S11305A0409306028193919302C0E0E0F0E0CF0112
S11305B0DF91CF911F910F910895CF93DF9300970F
S11305C009F481C0FC01329713821282A0910802BF
S11305D0B0910902109781F420813181820F931F19
S11305E020910602309107022817390751F5F0933C
S11305F00702E093060267C0ED0120E030E0CE1769
S1130600DF0740F44A815B819E0141155105F1F0F9
S1130610EA01F5CFD383C28340815181840F951FB2
S1130620C817D90759F488819981840F951F0296B8
S1130630918380838A819B819383828321153105F1
S113064029F4F0930902E09308023DC0E901FB8319
S1130650EA8349915991C40FD51FEC17FD0761F442
S113066080819181840F951F0296E9019983888383
S1130670828193819B838A83E0E0F0E012968D91DE
S11306809C911397009719F0FD01DC01F7CF8D9130
S11306909C9111979D012E5F3F4F820F931F2091D4
S11306A00602309107022817390769F4309729F4B4
S11306B0109209021092080202C013821282B093AF
S11306C00702A0930602DF91CF910895A0E0B0E065
S11306D0ECE6F3E00C943904EC01009721F4CB012F
S11306E00E944502B4C0FC01E60FF71F9C01225092
S11306F03109E217F30708F4A8C0D9010D911C9140
S1130700119706171707B0F00530110508F49BC0C0
S1130710C80104978617970708F495C00250110979
S1130720061B170B019311936D937C93CF010E94C9
S1130730DD0289C05B01A01AB10A4C01800E911E32
S1130740A0910802B0910902612C712CE12CF12CCA
S1130750109709F446C08D919C911197A815B9057D
S1130760B1F56C0142E0C40ED11CCA14DB0478F16B
S11307704C018A189B08640142E0C40ED11C1296F5
S1130780BC9012971396AC91B5E0CB16D10440F00F
S1130790B282A38391828082D9016D937C9309C034
S11307A00E5F1F4F800F911FF90191838083EB2D02
S11307B0FA2FE114F10431F0D7011396FC93EE9370
S11307C0129741C0F0930902E09308023CC06816F6
S11307D0790608F43C017D0112960D90BC91A02D80
S11307E0B7CF809106029091070288169906E1F42A
S11307F066167706C8F48091000190910101009774
S113080041F48DB79EB74091040150910501841BBA
S1130810950BE817F907C8F4F0930702E093060272
S1130820F901718360830FC0CB010E9445027C01F2
S1130830009759F0A801BE010E942C04CE010E9429
S1130840DD02C70104C0CE0102C080E090E0CDB754
S1130850DEB7EEE00C945504FB01DC0102C001900C
S11308600D9241505040D8F708952F923F924F92E5
S11308705F926F927F928F929F92AF92BF92CF922C
S1130880DF92EF92FF920F931F93CF93DF93CDB735
S1130890DEB7CA1BDB0B0FB6F894DEBF0FBECDBFAD
S11308A009942A88398848885F846E847D848C847E
S11308B09B84AA84B984C884DF80EE80FD800C8187
S11308C01B81AA81B981CE0FD11D0FB6F894DEBF6A
S10F08D00FBECDBFED010895F894FFCFDA
S11308DC00000A02200081316253C4F5A697B9883E
S11308ECDBEA7D4C1F2E4372211087B6E5D4FACB7C
S11308FC98A93E0F5C6D86B7E4D5427320113F0E68
S113090C5D6CFBCA99A8C5F4A796013063527C4D63
S113091C1E2FB889DAEB3D0C5F6EF9C89BAA84B51F
S113092CE6D7407122137E4F1C2DBA8BD8E9C7F63B
S113093CA59403326150BB8AD9E87F4E1D2C023337
S113094C6051C6F7A495F8C99AAB3C035E6F41702D
S113095C231285B4E7D67A4B1829BE8FDCEDC3F28B
S113096CA1900736655439085B6AFDCC9FAE80B103
S113097CE2D344752617FCCD9EAF38095A6B4574E7
S113098C271681B0E3D2BF8EDDEC7B4A19280637DB
S113099C6455C2F3A0914776251483B2E1D0FECFFF
S11309AC9CAD3A0B586904356657C0F1A293BD8CC3
S11309BCDFEE79481B2AC1F0A392053467567849B7
S11309CC1A2BBC8DDEEF82B3E0D1467724153B0A9B
S10909DC5968FFCE9DAC3A
S9030000FC
