S018000050726F746F636F6C45786368616E67652E7372656397
S11300000C9434000C9449000C9449000C9449005D
S11300100C9449000C9449000C94ED000C94490094
S11300200C9449000C9449000C9449000C94490028
S11300300C9449000C9449000C9449000C94490018
S11300400C9449000C9449000C9449000C94490008
S11300500C9449000C9449000C9449000C944900F8
S11300600C9449000C94490011241FBECFEFD8E032
S1130070DEBFCDBF12E0A0E0B1E0E8EBF2E002C0E9
S113008005900D92A230B107D9F70E9415010C9486
S11300905A010C940000662381F0DC019C01260FB8
S11300A0311D8FEFED918E27E82FF0E0EE5FFE4FCC
S11300B08081A217B307B1F708958FEF08951092C6
S11300C0C50087E08093C400E0ECF0E080818260AA
S11300D0808388E18093C1008EE08093C2000895FC
S11300E0E0ECF0E080818823ECF78091C60008956D
S11300F0EF92FF920F931F93CF93DF937C018C01B8
S1130100C0E0D0E00E9470008D3021F4CE0DDF1DE0
S1130110888305C0F80181938F012196F3CFDF9185
S1130120CF911F910F91FF90EF900895E0ECF0E0D4
S1130130908195FFFDCF8093C60008950F931F9380
S1130140CF93DF93FC01808181110AC011C0899192
S1130150882371F00E9496000C171D07C1F708C090
S11301608F010E949600E8012196005E1F4FEFCF99
S1130170DF91CF911F910F9108958FEF85B92FE7EC
S113018088E391E0215080409040E1F700C00000F6
S113019015B82FE788E391E0215080409040E1F7C3
S11301A000C000000895FC0180961192E817F90739
S11301B0E1F70895FC0120812D3031F0319691E072
S11301C081918D3029F401C090E08FEF890F08955B
S11301D09F5F9032A9F780E208951F920F920FB6A5
S11301E00F9211242F933F934F935F936F937F93B9
S11301F08F939F93AF93BF93EF93FF93A89580E45E
S1130200809360000E94BD00FF91EF91BF91AF9178
S11302109F918F917F916F915F914F913F912F911A
S11302200F900FBE0F901F901895CF93DF93CDB70B
S1130230DEB7A0970FB6F894DEBF0FBECDBF78949B
S113024099E288E10FB6F894A895809360000FBEF8
S11302509093600080E4809360008FEF84B9FE0186
S1130260319680E2DF011D928A95E9F70E945F00D2
S1130270CE0101960E947800CE0101960E94DA0018
S1130280182F682FCE0101960E944B00E1E0F0E0A8
S1130290EC0FFD1FE10FF11D8083CE0101960E943A
S11302A09E0080E091E00E949E00CE0101960E9493
S10B02B0D300DECFF894FFCF68
S11302B80D0081316253C4F5A697B988DBEA7D4CF9
S11302C81F2E4372211087B6E5D4FACB98A93E0FA6
S11302D85C6D86B7E4D5427320113F0E5D6CFBCA92
S11302E899A8C5F4A796013063527C4D1E2FB8898E
S11302F8DAEB3D0C5F6EF9C89BAA84B5E6D740716A
S113030822137E4F1C2DBA8BD8E9C7F6A594033265
S11303186150BB8AD9E87F4E1D2C02336051C6F761
S1130328A495F8C99AAB3C035E6F4170231285B457
S1130338E7D67A4B1829BE8FDCEDC3F2A1900736B5
S1130348655439085B6AFDCC9FAE80B1E2D344752D
S11303582617FCCD9EAF38095A6B4574271681B011
S1130368E3D2BF8EDDEC7B4A192806376455C2F305
S1130378A0914776251483B2E1D0FECF9CAD3A0B09
S1130388586904356657C0F1A293BD8CDFEE7948ED
S11303981B2AC1F0A3920534675678491A2BBC8DE1
S11303A8DEEF82B3E0D1467724153B0A5968FFCEC5
S10503B89DACF6
S9030000FC
