:100000000C9434000C9449000C9449000C94490061
:100010000C9449000C9449000C9449000C9449003C
:100020000C9449000C9449000C9449000C9449002C
:100030000C9449000C9449000C9449000C9449001C
:100040000C9449000C9449000C9449000C9449000C
:100050000C9449000C9449000C9449000C944900FC
:100060000C9449000C94490011241FBECFEFD8E036
:10007000DEBFCDBF11E0A0E0B1E0E4E2F2E002C0FB
:1000800005900D92A230B107D9F70E94C6000C94DA
:1000900010010C9400001092C50087E08093C4000A
:1000A000E0ECF0E080818260808388E18093C10091
:1000B0008EE08093C2000895E0ECF0E08081882318
:1000C000ECF78091C6000895EF92FF920F931F9373
:1000D000CF93DF937C018C01C0E0D0E00E945C00F4
:1000E0008D3021F4CE0DDF1D188205C0F8018193FB
:1000F0008F012196F3CFDF91CF911F910F91FF9048
:10010000EF900895E0ECF0E0908195FFFDCF8093B3
:10011000C60008950F931F93CF93DF93FC01808156
:1001200081110AC011C08991882371F00E94820058
:100130000C171D07C1F708C08F010E948200E8015B
:100140002196005E1F4FEFCFDF91CF911F910F914E
:1001500008958FEF85B92FEF81EE94E02150804014
:100160009040E1F700C0000015B82FEF81EE94E059
:10017000215080409040E1F700C000000895FC014C
:1001800080961192E817F907E1F70895CF93DF936E
:10019000CDB7DEB7C054D1090FB6F894DEBF0FBE9D
:1001A000CDBF8FEF84B9FE01319680E2DF011D9251
:1001B0008A95E9F70E944B006894BB24B5F88E013C
:1001C0000F5D1F4F0F2EF0E3CF2EF02D0F2EF1E31A
:1001D000DF2EF02D0F2EF2E3EF2EF02D0F2EF3E396
:1001E000FF2EF02DCE0101960E9464000E94A9000E
:1001F000F8018B2D11928A95E9F7C9A2DAA2EBA238
:10020000FCA2CDA2DEA2EFA2F8A6C8010E948A003D
:1002100080E091E00E948A00C8010E94BF00E2CF06
:04022000F894FFCF80
:020224000D00CB
:00000001FF
